:020000040800F2
:10000000A009002039010008A113000859130008B5
:1000100000000000000000000000000000000000E0
:100020000000000000000000000000004D1B000860
:100030000000000000000000551700084F1B0008DA
:100040004B010008351700084B0100084B01000860
:100050004B0100084B0100084B0100084B01000850
:1000600000000000690700084B0100084B01000870
:100070004B0100083D1C00084B0100084B01000823
:100080004B01000800000000000000004B010008C8
:1000900000000000091C00084B0100084B0100088B
:1000A000000000004B010008000000008D1E000849
:1000B00000F002F800F030F80CA030C8083824181E
:1000C0002D18A246671EAB4654465D46AC4201D190
:1000D00000F022F87E460F3E0FCCB6460126334292
:1000E00000D0FB1AA246AB4633431847A02C0000B1
:1000F000C02C00000023002400250026103A01D364
:1001000078C1FBD8520700D330C100D50B607047CF
:100110001FB51FBD10B510BD00F0BAF91146FFF7AD
:10012000F7FF02F08BF900F0D2F903B4FFF7F2FF0A
:1001300003BC00F0D9F90000074880470748004792
:10014000FEE7FEE7FEE7FEE7FEE7FEE704480549B7
:10015000054A064B70470000591B0008B100000813
:10016000A0030020A0090020A0050020A005002079
:100170004343514330B55C18010C130C0D4692B249
:100180005D4380B251432C19054655430A0C0904BE
:100190004D1962415843010C00044019514130BDD2
:1001A000FEB5054610460C46184373D0AE468C4645
:1001B0000020AD1A01469C4167D366460027012402
:1001C0003D46B61A9D4102D313463A462124654660
:1001D00076462F04360C3E432D0CB61A9D4104D3AF
:1001E000150C1B042B4312041034654676462F066B
:1001F000360A3E432D0AB61A9D4104D3150E1B0242
:100200002B4312020834654676462F0736093E43D3
:100210002D09B61A9D4104D3150F1B012B43120162
:10022000241D65467646AF07B6083E43AD08B61AAC
:100230009D4104D3950F9B002B439200A41C65465F
:100240007646EF0776083E436D08B61A9D411AD3ED
:1002500092185B41641C16E00018764665464941D9
:10026000B71A9D410191009009D36046B11A984197
:100270008E468446009801990025401C6941DD079F
:1002800052082A435B08641EE6D57246634603B0F3
:10029000F0BDFFE700200146C046C0462A4623467F
:1002A000F5E7002203098B4273D3030A8B4258D32C
:1002B000030B8B423CD3030C8B4221D312E0034649
:1002C0000B437FD4002243088B4274D303098B4233
:1002D0005FD3030A8B4244D3030B8B4228D3030C16
:1002E0008B420DD3FF22090212BA030C8B4202D3B8
:1002F0001212090265D0030B8B4219D300E0090AE0
:10030000C30B8B4201D3CB03C01A5241830B8B42E8
:1003100001D38B03C01A5241430B8B4201D34B03D1
:10032000C01A5241030B8B4201D30B03C01A524136
:10033000C30A8B4201D3CB02C01A5241830A8B42BB
:1003400001D38B02C01A5241430A8B4201D34B02A4
:10035000C01A5241030A8B4201D30B02C01A524108
:10036000CDD2C3098B4201D3CB01C01A52418309BC
:100370008B4201D38B01C01A524143098B4201D3F6
:100380004B01C01A524103098B4201D30B01C01A21
:100390005241C3088B4201D3CB00C01A524183089B
:1003A0008B4201D38B00C01A524143088B4201D3C8
:1003B0004B00C01A5241411A00D201465241104628
:1003C00070475DE0CA0F00D04942031000D340429D
:1003D000534000229C4603098B422DD3030A8B42D3
:1003E00012D3FC22890112BA030A8B420CD3890171
:1003F00092118B4208D3890192118B4204D3890157
:100400003AD0921100E08909C3098B4201D3CB0194
:10041000C01A524183098B4201D38B01C01A524149
:1004200043098B4201D34B01C01A524103098B424D
:1004300001D30B01C01A5241C3088B4201D3CB0038
:10044000C01A524183088B4201D38B00C01A52411B
:10045000D9D243088B4201D34B00C01A5241411AF2
:1004600000D20146634652415B10104601D3404220
:10047000002B00D54942704763465B1000D34042D1
:1004800001B50020C046C04602BD704770477047A6
:10049000754600F025F8AE46050069465346C0088B
:1004A000C000854618B020B5FFF750FE60BC00279D
:1004B0004908B6460026C0C5C0C5C0C5C0C5C0C530
:1004C000C0C5C0C5C0C5403D49008D46704710B588
:1004D0000446C046C0462046FFF727FE10BD000078
:1004E000004870473C03002001491820ABBEFEE7DE
:1004F00026000200704770B58C180578401C6B0709
:100500005B0F01D10378401C2A1106D10278401CF0
:1005100003E00678401C0E70491C5B1EF9D12B07C6
:1005200005D40023521E0DD40B70491CFAE7037842
:10053000401CCB1A921C03E01D780D70491C5B1CFB
:10054000521EF9D5A142D8D3002070BDF0B53B4D65
:1005500093B0284600F09EF80121480201F014F9FA
:100560000C2168460176022444760126867606A888
:1005700000F018FF0121084601F0EEF80921684655
:1005800001764476867606A800F00CFF2C4F38469C
:1005900000F028F92B4807902B48089006200A9075
:1005A00080200C904000860000240D9020200F90A9
:1005B00003200B940003099410900E9607A9119440
:1005C000384600F097F901220221384600F08AF9F6
:1005D0000121384600F0FAF80221284600F052F8CE
:1005E000684600F0AAF868460094047103940494E5
:1005F000694628460296059400F084F80122110409
:10060000284600F025F8012000F0A0F8284600F068
:1006100053F80121284600F02BF80121284600F06C
:100620001CF80A4C2846214600F05DF80028F9D055
:10063000284600F07DF813B0F0BD00000024014012
:100640000800024040240140820200200100000115
:10065000836A0B438362426170470029816803D03B
:10066000012211438160704702221143816070476B
:100670000029C16802D00122114301E04908490064
:10068000C1607047C26802239A43C260C2680A43CD
:10069000C2607047074988420AD110B501214C0257
:1006A000204601F07DF80021204601F079F810BDC8
:1006B0007047000000240140826800210123DB070D
:1006C0001A4382600F231B038268491CD20FD20792
:1006D000994201D0002AF7D18168002901DB006C22
:1006E00070470020704702460020CB0104D5926875
:1006F00001231B069A4300E012680A4200D0012041
:100700007047000030B4C368084A8C6813400A6818
:100710000D792243CC686D032C4322430C6949694F
:1007200022430A431A43C26030BC704703D2FFFF22
:1007300081680422114381607047002101600171CA
:100740008160C1600161416170470000012205497B
:10075000D2050028886801D0104300E090438860EB
:10076000704700000027014070B5022000F0AAF891
:10077000002808D0022000F01DF80B4CA0680428C7
:1007800002D2401CA06070BD0020A060074808494C
:100790004589606801F070FC0905000B08432818C2
:1007A000000B606070BD0000080200208202002083
:1007B000FF0F0000C10001D5024900E00249486076
:1007C0007047000000040240000002400029016858
:1007D00002D00122114301E0014A1140016070473B
:1007E000FEFF0000F0B40168274A114001600021BB
:1007F000016041608160C160244B25490F2298420D
:100800002DD0244CF023A04202D14868184330E098
:10081000214D0F242402A84229D0204E2501B042A8
:1008200002D14868284324E01D4F0F263604B84201
:1008300002D1486830431CE01A4FB84203D14868DF
:100840000F22120505E0184FB84204D148680F2264
:10085000120610430DE0154F1549B84201D1486802
:10086000F7E7144A9042D0D0134A904204D1486826
:1008700020434860F0BC7047104A9042D1D0104AE3
:100880009042D6D0F0BC7047FEFF00000800024046
:10089000000002401C0002403000024044000240C0
:1008A000580002406C0002408000024008040240F0
:1008B000000402401C040240300402404404024090
:1008C000580402400021C20001D5044A00E0044A55
:1008D0001268024200D0012108467047000402401D
:1008E00000000240002A026801D00A4300E08A4367
:1008F0000260704730B403680D4A0C6A13408A687E
:100900004D6922430C692C4322438C692243CC69F4
:1009100022434C6A22438C6A22431A430260CA680B
:1009200042600A6882604968C16030BC704700005C
:100930000F80FFFF0849074848620848016A491CC0
:100940000162042904D9002101628169491C816185
:1009500070470000B03600000044014068010020EC
:1009600070B5154C0926E069F606144D002807D02D
:10097000012811D00021022816D0A161E16170BDCB
:1009800000F076F82021304600F0E2FC0C48686266
:10099000E069401CE06170BD00F058F809486862E9
:1009A000E069401CE06170BD308A07486862E1611F
:1009B000A069401CA06170BD680100200044014096
:1009C000B5F90000F9F90000CEF90000F0B41B49B8
:1009D0001B4B08784978000208438446002008240D
:1009E00018258026197808225B1C07464F40FF0710
:1009F00003D068404008304300E040084908521ED8
:100A0000F3D1641E002CEDDC0C4B0D49D8750D7A2A
:100A10000C4910240A8885420AD122430A80604684
:100A2000052100B2490348430749000C888401E0CE
:100A3000A2430A8000209861F0BC70476801002042
:100A400078020020660200203C0000200122920271
:100A50000920C0060368032189028B4303600368F1
:100A60000360C3688B43C360C1681143C1607047B2
:100A7000012310B49B020920C00682680321890269
:100A80008A43826082680A43826084882022944379
:100A9000848084881443848002688A4302600168E9
:100AA0001943016010BC704770B5244C208EC007FC
:100AB00001D0206B34E0FFF7DBFF0925ED06202194
:100AC000284600F045FC2021284600F041FC20216A
:100AD000284600F03DFCFFF7B9FF2021284600F032
:100AE00037FC2021284600F033FC2021284600F066
:100AF0002FFC288A810601200029218E05DA490869
:100B00008840A17B0843A07304E049088840A17B8A
:100B10008143A1730B490A484862206B801C206303
:100B2000102806D100202063A07B6070A069401CC3
:100B3000A0610549A07B087070BD0000680100201D
:100B4000ECF90000004401407802002070B5244C0C
:100B5000A08EC00701D0606B34E0FFF789FF092544
:100B6000ED062021284600F0F3FB2021284600F066
:100B7000EFFB2021284600F0EBFBFFF767FF202169
:100B8000284600F0E5FB2021284600F0E1FB20216B
:100B9000284600F0DDFB288A810601200029A18E6D
:100BA00005DA49088840E17B0843E07304E049081E
:100BB0008840E17B8143E1730B490A484862606BDE
:100BC000801C6063102806D100206063E07B2070E9
:100BD000A069401CA0610549E07B487070BD000021
:100BE00068010020ECF90000004401407802002078
:100BF00070B5244C208FC00701D0A06B34E0FFF704
:100C000037FF0925ED062021284600F0A1FB202111
:100C1000284600F09DFB2021284600F099FBFFF7B5
:100C200015FF2021284600F093FB2021284600F0E4
:100C30008FFB2021284600F08BFB288A81060120AB
:100C40000029218F05DA49088840217C0843207457
:100C500004E049088840217C814321740B490A48FB
:100C60004862A06B801CA063102806D10020A063FE
:100C7000207CA070A069401CA0610549207C887080
:100C800070BD000068010020ECF900000044014044
:100C90007802002070B5244CA08FC00701D0E06B13
:100CA00034E0FFF7E5FE0925ED062021284600F097
:100CB0004FFB2021284600F04BFB2021284600F066
:100CC00047FBFFF7C3FE2021284600F041FB20210F
:100CD000284600F03DFB2021284600F039FB288AF9
:100CE000810601200029A18F05DA49088840617C2E
:100CF0000843607404E049088840617C8143617462
:100D00000B490A484862E06B801CE063102806D15A
:100D10000020E063607CE070A069401CA061054990
:100D2000607CC87070BD000068010020ECF9000014
:100D3000004401407802002070B5244C206CC007AC
:100D400001D0206C34E0FFF793FE0925ED06202149
:100D5000284600F0FDFA2021284600F0F9FA20216B
:100D6000284600F0F5FAFFF771FE2021284600F032
:100D7000EFFA2021284600F0EBFA2021284600F067
:100D8000E7FA288A810601200029216C05DA490842
:100D90008840A17C0843A07404E049088840A17CF5
:100DA0008143A1740B490A484862206C801C20646E
:100DB000102806D100202064A07C2071A069401C6E
:100DC000A0610549A07C087170BD00006801002089
:100DD000ECF90000004401407802002070B5244C7A
:100DE000606CC00701D0606C34E0FFF741FE09255C
:100DF000ED062021284600F0ABFA2021284600F01D
:100E0000A7FA2021284600F0A3FAFFF71FFE2021B1
:100E1000284600F09DFA2021284600F099FA20216A
:100E2000284600F095FA288A810601200029616C85
:100E300005DA49088840E17C0843E07404E0490889
:100E40008840E17C8143E1740B490A484862606C48
:100E5000801C6064102806D100206064E07C607112
:100E6000A069401CA0610549E07C487170BD00008C
:100E700068010020ECF900000044014078020020E5
:100E800070B5244CA06CC00701D0A06C34E0FFF713
:100E9000EFFD0925ED062021284600F059FA202112
:100EA000284600F055FA2021284600F051FAFFF7B5
:100EB000CDFD2021284600F04BFA2021284600F0E5
:100EC00047FA2021284600F043FA288A81060120AB
:100ED0000029A16C05DA49088840217D0843207566
:100EE00004E049088840217D814321750B490A4867
:100EF0004862A06C801CA064102806D10020A06469
:100F0000207DA071A069401CA0610549207D8871E9
:100F100070BD000068010020ECF9000000440140B1
:100F20007802002070B5244CE06CC00701D0E06C62
:100F300034E0FFF79DFD0925ED062021284600F04D
:100F400007FA2021284600F003FA2021284600F065
:100F5000FFF9FFF77BFD2021284600F0F9F9202159
:100F6000284600F0F5F92021284600F0F1F9288AFA
:100F7000810601200029E16C05DA49088840617D7D
:100F80000843607504E049088840617D81436175CC
:100F90000B490A484862E06C801CE064102806D1C6
:100FA0000020E064607DE071A069401CA0610549FB
:100FB000607DC87170BD000068010020ECF9000080
:100FC000004401407802002070B5244C206DC00719
:100FD00001D0206D34E0FFF74BFD0925ED062021FF
:100FE000284600F0B5F92021284600F0B1F920216B
:100FF000284600F0ADF9FFF729FD2021284600F032
:10100000A7F92021284600F0A3F92021284600F066
:101010009FF9288A810601200029216D05DA4908F7
:101020008840A17D0843A07504E049088840A17D5F
:101030008143A1750B490A484862206D801C2065D8
:10104000102806D100202065A07D2072A069401CD8
:10105000A0610549A07D087270BD000068010020F4
:10106000ECF90000004401407802002070B5174CF4
:10107000174E208D174DC00706D06E62FFF7E6FCB5
:10108000A06A401CA06217E0FFF7F2FC09202021B3
:10109000C00600F05DF9A06A012142089140227B60
:1010A000114205D0801CA0626E62FFF7CFFC03E006
:1010B00009496962401CA062A06A102804D100207E
:1010C000A062A069401CA06170BD00006801002002
:1010D000F6F9000000440140F9F9000070B5174C22
:1010E000174EA08D174DC00706D06E62FFF7AEFCFD
:1010F000E06A401CE06217E0FFF7BAFC09202021FB
:10110000C00600F025F9E06A012142089140627BA7
:10111000114205D0801CE0626E62FFF797FC03E08D
:1011200009496962401CE062E06A102804D100208D
:10113000E062A069401CA06170BD00006801002051
:10114000F6F9000000440140F9F9000070B5174CB1
:10115000174EA08C174DC00706D06E62FFF776FCC5
:10116000606A401C606217E0FFF782FC09202021C2
:10117000C00600F0EDF8606A012142089140E27A71
:10118000114205D0801C60626E62FFF75FFC03E0D5
:1011900009496962401C6062606A102804D100201D
:1011A0006062A069401CA06170BD00006801002061
:1011B000F6F9000000440140F9F9000001494861D6
:1011C0007047000000040140F0B50B2706463F04BD
:1011D000384600F047F804280FD1084C2069022552
:1011E0002843206166612069402108432061384618
:1011F00000F038F82169A9432161F0BD00200240C8
:1012000002480169802211430161704700200240B9
:10121000F0B50B2706463F040D46384600F022F88D
:1012200004280CD1064C2069012108432061358037
:10123000384600F017F82169490849002161F0BDDE
:101240000020024004480169090603D503494160B2
:1012500003494160704700000020024023016745B8
:10126000AB89EFCD14490246CB680420DB071FD1C0
:10127000CB68DB0601D5022016E0C968490713D503
:10128000032011E0CB680420DB0701D0012008E037
:10129000CB68DB0601D5022003E0CB685B0700D5F5
:1012A0000320521E012803D0002A00D105207047D8
:1012B000002AE7D1FAE7000000200240F0B4002243
:1012C00001273B460C6893401C409C422AD10C7974
:1012D000012C01D0022C12D1866855000324AC40A9
:1012E000A64386604C79AC4085682C438460848832
:1012F0009C43848084888B7993401C438480056858
:1013000054000323A3409D4305600D790668A54062
:1013100035430560C5689D43C560CB79A340C4686B
:101320002343C360521C102ACBD3F0BC70474B0739
:10133000DB0E9A40C90810B489000818016A0F240E
:101340009C40A1430162016A1143016210BC7047D5
:101350000185704781617047FEE70000024901483E
:1013600008607047CCCC00000030004002490148C2
:1013700008607047AAAA0000003000400149486098
:10138000704700000030004001498860704700004D
:101390000030004001490860704700000030004004
:1013A0007047000030B4837801210278002B15D0FB
:1013B00094080E4BA400E41823689207D50EFF2270
:1013C000AA40934342789207120EAA401A43226021
:1013D0000078C006C00E8140054803E0D006C00E6C
:1013E00081400448016030BC7047000000E400E028
:1013F00000E100E080E100E0014901200870704751
:1014000000000020F0B5754883B08178C2780902E9
:1014100089188EB2017940790902081880B20090CB
:101420006F48704CC07820700320607000980025D1
:1014300040000190A0700098E41C002871D96A4F08
:101440007019C01926286DD201007944097949180C
:101450008F4412181E242A962D2F35383B3E4447C0
:101460004A4D5053575D619664696C6F7275787B15
:101470007E8184878A8D90935C4864210068FEF7A2
:101480001EFF3CE0594864214068FEF718FF36E033
:10149000564864218068FEF712FF30E0534864210B
:1014A000C068FEF70CFF2AE05048008D27E0504846
:1014B00018E04E4864210069FEF7F3FE1FE04B4838
:1014C000808C5EE04948C08C5BE04848808E58E0E4
:1014D00046486421C08FFEF7E4FE52E04348808F07
:1014E0004FE0444800884CE04048806C07E03F48AB
:1014F000406C04E03D48006D01E03C48C06C80B2A7
:101500003FE03A486421408CFEF7CBFE39E0374893
:10151000C06D80B235E03548C08E32E03048C078CA
:101520002FE038E02CE02E4840892AE02C488089C2
:1015300027E02B48C08824E02948008921E028487A
:10154000C0891EE02648008A1BE02548408A18E032
:101550002348808A15E02248C08A12E02048008B88
:101560000FE01F48408B0CE01D48808B09E01C48B1
:10157000C08B06E01A48008C03E01948408C00E05C
:101580000020010A217060706D1C0098EDB2A41C4F
:10159000854200D254E7134BFF21184680780D4650
:1015A000C01CC0B2401E0AD4134E144F1A78401EFD
:1015B0004A40B15C5B1C6940BD5C0028F6DA080259
:1015C0002843010A217060700D48002101700199C3
:1015D000491D817001F0C0F903B0F0BD0A0300207D
:1015E000420200209A02002006FAFFFF3C00002081
:1015F000660200207C0000208C2B00088C2C000848
:101600003C02002070B5444C444D2146284600F071
:101610004CFD434808218170002101702878002882
:1016200001D001F099F92079617900020818A178B8
:1016300000B206296ED1E2783A49102A1FD0112A49
:1016400026D0122A34D0384B132A3AD0142A41D04B
:10165000152A48D0162A48D0172A48D0182A48D028
:10166000192A48D01A2A48D01B2A48D01C2A48D008
:101670001D2A48D01E2A48D01F2A48D048E00128F9
:1016800001DA012002E0F72800DDF720C8703FE012
:101690007D221201254B904201DA104602E0984269
:1016A00000DD184648812249C88401F03BFA2FE04A
:1016B0001E2801DA1E2002E0962800DD962088818F
:1016C00026E0002801DA002002E0984200DD1846FA
:1016D000C8801DE0002801DA002002E0984200DD09
:1016E0001846088114E0C88112E0088210E04882A0
:1016F0000EE088820CE0C8820AE0088308E0488394
:1017000006E0888304E0C88302E0088400E048849F
:1017100001F09EF870BD00000A0300209A0200202C
:101720003C02002042020020DC050000983A000044
:101730003C000020064C10212046FFF709FE402007
:10174000FFF73CFD10212046FFF704FEFEE70000F6
:101750000008004870470000044A0029516901D080
:10176000014300E0814351617047000000100240D6
:10177000044A0029D16901D0014300E08143D161CD
:101780007047000000100240044A0029916901D00E
:10179000014300E081439161704700000010024066
:1017A000044A0029D16801D0014300E08143D1609F
:1017B0007047000000100240F8B5574D04466A68B3
:1017C00000210C20554E024006D07000042A05D09E
:1017D000082A05D00C2A1BD026601BE0206019E0E7
:1017E0006A68696803239202DB03170F1940BF1C64
:1017F000002909D0E96A0907090F491CFEF751FDC4
:1018000078430146216005E0454839464143F9E700
:10181000444820606868444F0006000F3B5C206825
:101820000246DA4062606B685B055B0FFB5CDA4086
:10183000A2602B6BDB0502D43C4BE36006E06B68D7
:101840005B0401D4530800E09308E3602B6B5F0650
:10185000374B02D4374F276100E023612F6BFF061F
:1018600001D4666100E060612F6BBF070ED02F6B63
:10187000BF07BF0F012F0BD02F6BBF07BF0F022F6A
:1018800008D02F6BFF43BF0706D006E0A26104E03B
:10189000A06102E0A36100E0A6612F6BBF03BF0F50
:1018A0000FD02F6BBF03BF0F012F0CD02F6BBF03C7
:1018B000BF0F022F09D02F6BBF03BF0F032F06D01E
:1018C00006E0E26104E0E06102E0E36100E0E6617D
:1018D0002F6B3F03BF0F0FD02A6B1203920F012A09
:1018E0000CD0286B0003800F022809D0286B00035E
:1018F000800F032806D006E0226204E0206202E0A6
:10190000236200E02662286B000602D4054860626C
:10191000F8BD6162F8BD00000010024000127A00BC
:1019200000093D00006CDC0268020020809FD500A9
:101930000080000012800000F0B57F4B7D4C59788C
:101940006054491CCAB25A70082A4ED2100078441A
:101950000079001887444803034848484848002A4B
:1019600042D0764D2078E97888420AD1022A3BD3CA
:101970006078032838D0052836D0062834D01028BF
:1019800032D00122D207597800292DD0481E0028D4
:1019900015DD6848C907D14202D041780170401C6A
:1019A0005978491E49100906090E08D04678067074
:1019B00086784670801C491E0906090EF6D15878B3
:1019C000401E0006000E58700ED02178EE78B1420D
:1019D000D9D1022808D36078032805D0052803D080
:1019E000062801D01028CED1F0BD082AFCD35148DA
:1019F0004078032851D005284FD0062807D010285A
:101A0000F2D14C488079C01D0006000EECD0811C3C
:101A10008A42E9D3FF23474D1E46411E0AD4484F50
:101A20002C78491E5C403B5D6D1C7340454E00297F
:101A3000365DF5DA19023F4C31430B0A255CC9B219
:101A40009D422CD120184078884228D13A4D501E12
:101A50003D4E002817DDD3070122601E711ED207FC
:101A6000D34203D042784A70401C491C6A784378BC
:101A7000521E521007D087784B70C3788F70801C2D
:101A8000891C521EF7D16878401E01D4215C315464
:101A90000120E87000206870F0BD0620B7E700F074
:101AA00067FC254A50780028F6D0244B2178DD7851
:101AB000A9420AD10228EFD360780328ECD0052888
:101AC000EAD00628E8D01028E6D00125ED075178A5
:101AD0000029E1D0481E002815DD1648C907E94253
:101AE00002D041780170401C5178491E4910090606
:101AF000090E08D04678067086784670801C491E0C
:101B00000906090EF6D15078401E0006000E5070EE
:101B1000C2D02178DE78B142D9D10228BCD3607816
:101B20000328B9D00528B7D00628B5D01028CED1C3
:101B3000F0BD0000DA0200203C020020420200203A
:101B40008C2B00088C2C00080A030020704710B56D
:101B5000FFF752FC10BD0000274881B00168012248
:101B6000114301604168254A114041600168244ADF
:101B700011400160016801229204914301604168B3
:101B80003F22120491434160C16A09090901C162FF
:101B9000016BFF22543291430163416B49084900B4
:101BA0004163002181600091164A11211160416852
:101BB00041604168416041687F22D20391434160A6
:101BC00041680522D20411434160016801221206D6
:101BD0001143016001688901FCD5416889088900C9
:101BE0004160416802221143416041680907890F41
:101BF0000229FAD101B07047001002400CB8FFF87A
:101C0000FFFFF6FE0020024010B5094C01212046DE
:101C100000F03FF8002809D00121204600F020F80C
:101C200004480549806980000858804710BD0000BD
:101C30000044014068010020C001002010B5074C9D
:101C40000121204600F025F8002806D00121204679
:101C500000F006F8002000F093FC10BD002C0140BD
:101C6000C943018270470029018802D00122114333
:101C700001E049084900018070474030002981880F
:101C800003D00122D203114301E04904490C8180B1
:101C90007047038A002280890B400840002B02D045
:101CA000002800D0012210467047002A828901D006
:101CB0000A4300E08A4382817047000030B4028CFE
:101CC000520852000284038C8288048B7025AC4336
:101CD000A4080D88A40025430224A3438C891C4337
:101CE0004B882343104CA04208D0104CA04205D092
:101CF0000F4CA04202D00F4CA0420DD10824A343A8
:101D0000CC891C4304239C438B8823430A4C2240E8
:101D10000C8A14434A8A224382800583896841637E
:101D2000038430BC70470000002C0140004001409B
:101D30000044014000480140FFFC0000028B0823E2
:101D40009A430A430283704770B4028C10239A436B
:101D50000284048C8288038B1B4D2B400D782D064A
:101D60002D0C1D4320239C438B891B051E0C4B8887
:101D700026431B051B0C154C3343A04202D0144EC6
:101D8000B04219D1134E32400E8AB604360C32439B
:101D9000A04211D18024A343CC892405240C1C43E8
:101DA00040239C438B881B051B0C23430A4C224079
:101DB0004C8AA404240C22438280058389688163B1
:101DC000038470BC70470000FF8C0000002C0140B1
:101DD00000400140FFFB0000FFF70000028B034BB7
:101DE00009021A401143018370470000FFF7000009
:101DF000002101804180818081608181C1810182D7
:101E000041827047828870239A43828082880A4385
:101E10008280704710B40288154B984206D0012486
:101E2000A407A04202D0134CA04203D17024A243C5
:101E30004C882243104CA04203D0104C22400C8905
:101E4000224302804A68C2620A880285984208D00A
:101E50000B4A904205D00B4A904202D00A4A904267
:101E600001D1897A01860121818210BC704700006E
:101E7000002C01400004004000100040FFFC000066
:101E800000400140004401400048014030B5274C6B
:101E900083B02549204600F05EF8002807D0204690
:101EA00000F0E2F8C0B2FFF747FD03B030BD204DAF
:101EB0002046294600F04FF8002830D02946204619
:101EC00000F03AF800F02CF9012305469B030922A3
:101ED00000200121D206002D009316D002256B466A
:101EE0001D719871D971694615461046FFF7E6F9DC
:101EF00001220E212846FFF71AFA00F0FFF80146EA
:101F0000204600F0B5F803B030BD6B4618719871EB
:101F1000D97169461046FFF7D1F903B030BD0020F2
:101F2000C043206203B030BD050105000038014008
:101F300006010600016270470A0C0121914001620E
:101F400070470029016802D00122114301E04908CD
:101F500049000160704730B40A04130E0122144690
:101F600000258C40012B0FD0022B10D0836823401A
:101F7000090CC0698A401040002B02D0002800D014
:101F80000125284630BC704703682340F0E74368CA
:101F9000EDE710B40B041C0E01238B40022C02D081
:101FA000032C02D002E0001D00E008300168002A86
:101FB00001D0194300E09943016010BC7047000054
:101FC00030B5044600688BB00D46400840002060E4
:101FD0006068032109038843A968014361602068A0
:101FE0001C49EA680840696811432A6902431143A1
:101FF0002160A06803210902884369690143A16047
:102000006846FFF7D9FB1448844201D106980AE0DC
:102010001248844201D1079805E01148844201D159
:10202000089800E0029821680904296800D540005A
:10203000FEF737F92A6852088A4200D8401C216806
:10204000090404D50107074A490F10400843A0813D
:102050000BB030BDF3E9FFFF003801400044004001
:1020600000480040F0FF0000808CC005C00D7047A4
:10207000C905C90D01857047F0B4040C8BB2264622
:1020800082B25E430D0C1046370C5843360480195B
:102090000021794116466E43370C36048019794188
:1020A00026466E438919F0BC70470A7802704B7857
:1020B00043708A788270CA78C2700B7903714A794A
:1020C00042718A798271CB79C371704710B5084823
:1020D0001922018B074852014068401A5043064AB2
:1020E0005288511AFEF7EBF8FF302D3010BD00007A
:1020F000A0F7FF1F08020020C0F7FF1F06490A785B
:102100008878824204D20548805C521C0A7070476D
:1021100000208870087070473C0200209A0200205E
:10212000054801788278914201D201207047002150
:1021300081700170084670473C020020F0B5012113
:1021400085B04804FFF708FB01218C032046FFF708
:102150001BFB02940024684604738473012509273D
:10216000C573FF0602A93846FFF7A8F8032040020E
:1021700000900226684606718471C571694638462A
:10218000FFF79CF8012209213846FFF7D0F8012219
:102190000A213846FFF7CBF81B21684601744674C4
:1021A000857404A8FFF7FEF803480179807800F0F1
:1021B0006FFB05B0F0BD00004202002070B50121A8
:1021C0004E0486B03046FFF7C7FA20200490002462
:1021D00069460C750125CD75092004A9C006FFF7D5
:1021E0006DF801213046FFF7CFFA152069460873D4
:1021F0004D738D7303A8FFF7D5F80C4D01221146DE
:102200002846FFF752FD6946FF200C81E030088028
:10221000074801904C808C722846FFF7FBFD012196
:102220002846FFF720FD06B070BD000000440140C5
:10223000FFF9000010B5012184B0C802FFF7A4FA2D
:102240000D2069460873022048730120887303A893
:10225000FFF7A8F80E4C012211462046FFF725FD96
:10226000002269460A810A80F92001904A800720ED
:1022700088722046FFF7CEFD20212046FFF7C2FDE1
:1022800001212046FFF7EFFCFEF760F904B010BD16
:10229000002C014010B500F095F810BD38B515219F
:1022A000684601700221417001218170FFF77AF8C0
:1022B000012211460D48FFF7F8FC0D487D21C900A9
:1022C0000068FDF7EEFF0B49401E88420DD80A4911
:1022D00048610A480722C3691B021B0A4C042343B6
:1022E000C361002088610A6138BDFEE700440140F7
:1022F00028020020FFFFFF0000E000E004ED00E006
:1023000010B50748FFF746F80648FFF73DF80320E9
:10231000FFF734F8FFF72AF8FFF720F810BD0000A8
:1023200055550000FF0F000010B5012182B0480490
:10233000FFF712FA4220009002206946087101203E
:10234000487100228A710924C871E4062046FEF70C
:10235000B5FF012211462046FEF7E9FF01220621C2
:102360002046FEF7E4FF00F007FA02B010BD0000BF
:10237000124A517800291FD0481E002817DD01237A
:102380000F48C907DB07D94202D041780170401CD1
:102390005178491E49100906090E08D04378037088
:1023A00083784370801C491E0906090EF6D15078C7
:1023B000401E507001207047002070473C020020F2
:1023C000DA020020F8B5194C194A2088108010460E
:1023D0000388184AA11E93421AD00280FEF732FFEA
:1023E0002046FEF7F1FEFEF70BFF2426104FFEF706
:1023F00029FF00257608761C6800395A0019FEF777
:1024000007FF6D1CEDB2AE42F6D8FEF7F9FEF8BD3F
:10241000094809224B8843808B888380001D091D51
:10242000521E1206120EF5D1F8BD0000007F000802
:1024300042020020AA5400004002002082B0002581
:10244000FFF75EFF012080F31088314C08212088BF
:1024500088432080FFF71EFF2E482F4F40892F49C9
:10246000F88488632E4800260670FFF75DFFFFF7AB
:1024700065FEFFF7DFFEFFF711FFFFF79FFE86F314
:102480001088264C274FFEF771FF00F051F8207896
:102490000028F8D0FF216D1C2670F5312846FDF785
:1024A00000FF002901D100F0BDFA7D210901284675
:1024B000FDF7F7FE002927D115480088010701D450
:1024C000C00606D401208007C16A816316484663AE
:1024D00016E01148C08C0090A16B88420ED00146D6
:1024E0001248FDF7DEFE0146401E01229207D0622F
:1024F0000D4BD8624808401E906358630098A06353
:10250000FFF7E4FD0449C886BD42BCD90025BAE7FF
:1025100066020020420200203C0000200000002053
:102520005C000020881300000004004080A9030024
:1025300010B511480179002901D0491E017101210E
:1025400081F31088C178002911D00021C17081F376
:1025500010880A484078032806D0052801D00628AC
:1025600001D1FFF74FF810BDFEF74CFF10BD002062
:1025700080F3108810BD00003C0200200A030020F8
:10258000F0B56E4E6E4F706A6E4D002483B0002819
:1025900047D06D48408C009001466C48FDF781FEA5
:1025A0003146C8617D21490188427CD8664E7D2133
:1025B000306E48430099FDF774FE6049644A086232
:1025C0005E48B16A8162644862490090029201915A
:1025D0006248634B0068634A103900F0DFF95748DE
:1025E000016800292ADD8068544AC117926A23468F
:1025F000FDF7BEFD514A2346126AFDF7B9FD5A4A5E
:102600002346928BFDF7B4FD54484C4A0164D269CD
:10261000914200D90264554932688A4207DDEC6371
:102620000AE06C63AC63EC633C6003B0F0BD006C2B
:10263000C5214843000BE8636C6320E000291CDAE5
:102640003E483E4A4068926AC1172346FDF790FD16
:102650002346B26DFDF78CFD0903000D08433F4989
:10266000364A4864D269904200D94A64EC63486CA7
:10267000C5214843000B686301E06C63EC632F489D
:10268000C168002926DD40692C4AC117926A234699
:10269000FDF76EFD294A2346126AFDF769FD324AAD
:1026A0002346D28B00E044E0FDF762FD3048234A28
:1026B0000164D269914200D902642C4972688A424D
:1026C00001DD204603E0006CC5214843000B386063
:1026D00020461CE000291CDA1848184A0069926A52
:1026E000C1172346FDF744FD2346B26DFDF740FDBB
:1026F0000903000D08431E49104A4864D2699042FC
:1027000000D94A643C60486CC5214843000BA8636B
:1027100001E03C60AC6311480849026889695118BE
:10272000144A0160914280DB52428918016003B073
:10273000F0BD7D2101484901C16137E7A8000020B3
:10274000402C0140002C01403C00002040A5AE027E
:10275000BC000020B8000020B4000020D8000020F9
:10276000B0000020AC00002042020020888402005B
:10277000200100207F480600F0B532488BB0C18CA4
:102780003148FDF78EFD064601210220FEF7F0FFDD
:1027900001210846FEF7ECFF002469460C81EF2773
:1027A0000F80751E01954C808C722848FFF732FB14
:1027B00006A8FFF71DFB60206946088301204883B7
:1027C0008C838C84CC84760806A920480896FFF771
:1027D00075FA08211D48FFF7B1FA01211B48FFF7E0
:1027E00042FA01211948FFF748FA69468C828F8125
:1027F0000495CC8101258C75AD0703A92846FFF708
:1028000009FB06A8FFF7F4FA602069460883012057
:1028100048838C83022088840820C88406A928461F
:102820000896FFF791FA08212846FFF7D7FA012109
:102830002846FFF718FA01212846FFF71EFA0BB0C9
:10284000F0BD00003C00002080A90300000400400F
:10285000F8B50D4EFEF7F6FC3046FEF7B5FCFEF778
:10286000CFFC2425094FFEF7EDFC00246D086D1CFC
:102870006000395A8019FEF7CBFC641CE4B2A54213
:10288000F6D8FEF7BDFCF8BD007F0008420200202C
:10289000F0B52F4F0E46054687B000222B4938462B
:1028A000FFF777FB00222B493846FFF772FB002128
:1028B0003846FFF746FB002D08D0012D09D0022D28
:1028C0000AD0032D0BD0042D0CD00DE04B24E400D6
:1028D0000AE04B24240107E04B24640104E04B246C
:1028E000A40101E04B24E401002000940290002E9A
:1028F00006D001210903012E05D0022E07D00AE0DF
:102900000190039007E001910321490202E0019147
:1029100001218902039105900C20049069463846F4
:10292000FFF74EFB40213846FFF704FB012209491F
:102930003846FFF72EFB012204493846FFF729FBF2
:1029400001213846FFF7FDFA07B0F0BD050105008B
:10295000003801400601060010B5012082B0800356
:102960000090022168460171002181710121C1712D
:102970000924E40669462046FEF7A0FC01220E2148
:102980002046FEF7D4FCFFF7B9FB01460248FFF7EB
:102990006FFB02B010BD000000380140FFB581B0F0
:1029A0001446400018490A9F0B9E0C9DFDF787FCBA
:1029B000002802DAFF30401CFCD4FF21013188429C
:1029C00005DDC117090E0918090A0902401A0F4945
:1029D000800009584A0002990A600D4909584900C7
:1029E00021600C4909584A0004990A600A490958AB
:1029F00049003960094909584900316008490858B7
:102A00004000286005B0F0BD910C0000802B00084C
:102A1000842B0008742B00087C2B0008782B0008FE
:102A2000702B000870B43748374905890B88082097
:102A3000334C03433348A28C4089AA4203D30B8012
:102A4000E08470BC7047002A0CD02F4BFF251B88F8
:102A500008262D35B343AA4204D91546FF3D2E3D25
:102A6000312D01D80B8048E01546FF3D603D312DEA
:102A700002D80B801E3840E01546FF3D923D312DB7
:102A800002D80B80323838E01546FF3DC43D312D69
:102A900002D80B80643830E01546FF3DF63D312DFD
:102AA00002D80B808C3828E0184D5519312D02D8EA
:102AB0000B80A03821E0164D5519312D02D80B801E
:102AC000AA381AE0134D5519312D02D80B80B438AD
:102AD00013E0114D5519312D02D80B80C8380CE088
:102AE0000E4D5519312D02D80B80D23805E00C4D12
:102AF0005219C72AB6D80B80F038E08470BC7047F2
:102B00003C0000204202002066020020D9FDFFFFA9
:102B1000A7FDFFFF75FDFFFF43FDFFFF11FDFFFF59
:102B2000DFFCFFFF70B50D480E4D017C0E4C090710
:102B30008A0F0B4909D00D48C08CFFF79DFA2A4631
:102B40000023FDF72DFBA06170BD4089FFF794FACB
:102B50002A460023FDF724FBA06170BD420200203D
:102B60007F480600009F2400A80000203C000020B1
:102B7000746E0100AF680000846501003D00FEFF37
:102B8000C3290000846501002166000000C1814066
:102B900001C0804101C0804100C1814001C080412D
:102BA00000C1814000C1814001C0804101C080411D
:102BB00000C1814000C1814001C0804100C181400D
:102BC00001C0804101C0804100C1814001C08041FD
:102BD00000C1814000C1814001C0804100C18140ED
:102BE00001C0804101C0804100C1814000C18140DD
:102BF00001C0804101C0804100C1814001C08041CD
:102C000000C1814000C1814001C0804101C08041BC
:102C100000C1814000C1814001C0804100C18140AC
:102C200001C0804101C0804100C1814000C181409C
:102C300001C0804101C0804100C1814001C080418C
:102C400000C1814000C1814001C0804100C181407C
:102C500001C0804101C0804100C1814001C080416C
:102C600000C1814000C1814001C0804101C080415C
:102C700000C1814000C1814001C0804100C181404C
:102C800001C0804101C0804100C1814000C0C1013C
:102C9000C30302C2C60607C705C5C404CC0C0DCDCC
:102CA0000FCFCE0E0ACACB0BC90908C8D81819D93C
:102CB0001BDBDA1A1EDEDF1FDD1D1CDC14D4D5156C
:102CC000D71716D6D21213D311D1D010F03031F15C
:102CD00033F3F23236F6F737F53534F43CFCFD3D8C
:102CE000FF3F3EFEFA3A3BFB39F9F83828E8E9297C
:102CF000EB2B2AEAEE2E2FEF2DEDEC2CE42425E52C
:102D000027E7E62622E2E323E12120E0A06061A19B
:102D100063A3A26266A6A767A56564A46CACAD6D4B
:102D2000AF6F6EAEAA6A6BAB69A9A86878B8B979BB
:102D3000BB7B7ABABE7E7FBF7DBDBC7CB47475B5EB
:102D400077B7B67672B2B373B17170B050909151DB
:102D50009353529296565797559594549C5C5D9D0B
:102D60005F9F9E5E5A9A9B5B9959589888484989FB
:102D70004B8B8A4A4E8E8F4F8D4D4C8C44848545AB
:102D8000874746868242438341818040AC2D0008BC
:102D90000000002078020000F6040008442E00081D
:102DA0007802002028070000F4000008113A010111
:102DB000510224065A7D04012312C80364701703CC
:102DC0001E68102330750342E803094548044ACCC5
:102DD00044BE13610914084D1114086D101B083509
:102DE0000C69101ADD101BA90A0C120B1B08F10448
:102DF00013950C1C08390D18190413810E1408259D
:102E00000F1B08C9041ACD3091C3C05D5918536512
:102E1000024B6CDC08316009010203040607080953
:102E20002555AA04011008C2012C01D4177814D02A
:102E300007061228151D011D0179028BB80B386990
:042E40003C00000052
:04000005080000B13E
:00000001FF
