:020000040800F2
:10000000480A002039010008451A0008FD190008B7
:1000100000000000000000000000000000000000E0
:100020000000000000000000000000004D22000859
:100030000000000000000000A51E0008D9220008F2
:100040004B010008851E00084B0100084B01000809
:100050004B0100084B0100084B0100084B01000850
:1000600000000000C30900084B0100084B01000814
:100070004B0100087D2300084B010008A123000864
:100080000524000800000000000000004B010008EB
:10009000000000005D2300084B0100084B01000830
:1000A000000000004B01000800000000F5260008D9
:1000B00000F002F800F030F80CA030C8083824181E
:1000C0002D18A246671EAB4654465D46AC4201D190
:1000D00000F022F87E460F3E0FCCB6460126334292
:1000E00000D0FB1AA246AB4633431847BC3B000086
:1000F000DC3B00000023002400250026103A01D339
:1001000078C1FBD8520700D330C100D50B607047CF
:100110001FB51FBD10B510BD00F06BFA1146FFF7FB
:10012000F7FF02F089FE00F083FA03B4FFF7F2FF55
:1001300003BC00F089FA00000748804707480047E1
:10014000FEE7FEE7FEE7FEE7FEE7FEE704480549B7
:10015000054A064B70470000E1220008B100000884
:1001600048040020480A00204806002048060020D5
:100170004343514330B55C18010C130C0D4692B249
:100180005D4380B251432C19054655430A0C0904BE
:100190004D1962415843010C00044019514130BDD2
:1001A000FEB5054610460C46184373D0AE468C4645
:1001B0000020AD1A01469C4167D366460027012402
:1001C0003D46B61A9D4102D313463A462124654660
:1001D00076462F04360C3E432D0CB61A9D4104D3AF
:1001E000150C1B042B4312041034654676462F066B
:1001F000360A3E432D0AB61A9D4104D3150E1B0242
:100200002B4312020834654676462F0736093E43D3
:100210002D09B61A9D4104D3150F1B012B43120162
:10022000241D65467646AF07B6083E43AD08B61AAC
:100230009D4104D3950F9B002B439200A41C65465F
:100240007646EF0776083E436D08B61A9D411AD3ED
:1002500092185B41641C16E00018764665464941D9
:10026000B71A9D410191009009D36046B11A984197
:100270008E468446009801990025401C6941DD079F
:1002800052082A435B08641EE6D57246634603B0F3
:10029000F0BDFFE700200146C046C0462A4623467F
:1002A000F5E7002203098B422CD3030A8B4211D3BA
:1002B00000239C464EE003460B433CD400224308F7
:1002C0008B4231D303098B421CD3030A8B4201D3E7
:1002D00094463FE0C3098B4201D3CB01C01A52417F
:1002E00083098B4201D38B01C01A524143098B42CF
:1002F00001D34B01C01A524103098B4201D30B01B8
:10030000C01A5241C3088B4201D3CB00C01A5241DC
:1003100083088B4201D38B00C01A524143088B42A1
:1003200001D34B00C01A5241411A00D2014652413A
:10033000104670475DE0CA0F00D04942031000D359
:100340004042534000229C4603098B422DD3030AAE
:100350008B4212D3FC22890112BA030A8B420CD3BE
:10036000890192118B4208D3890192118B4204D3E7
:1003700089013AD0921100E08909C3098B4201D367
:10038000CB01C01A524183098B4201D38B01C01AA1
:10039000524143098B4201D34B01C01A5241030918
:1003A0008B4201D30B01C01A5241C3088B4201D3C7
:1003B000CB00C01A524183088B4201D38B00C01A74
:1003C0005241D9D243088B4201D34B00C01A52414B
:1003D000411A00D20146634652415B10104601D3D8
:1003E0004042002B00D54942704763465B1000D362
:1003F000404201B50020C046C04602BD704770476C
:1004000070470000F0B5FF252D04C609C209FF277B
:1004100004462E400137CB093E4348402A402B403A
:100420000746002A6BD0002B69D0AA4267D0AB42A6
:1004300065D0002800DA32460125ED0529432C431A
:1004400009022002090AD21A4B0C7F24E31A434CFA
:10045000000A7C44E35C7D242404121914145B001C
:10046000A218884201D3521C00E0400049420C46C9
:100470005C4324115C43DB016415E318040A5C430C
:10048000C502200D0C4644436419250A5D4323032D
:10049000EC0C0D46654300030019EB184C42A342D7
:1004A00001D35B18401CD4052018002B07D05B003B
:1004B000C91804D3401C002901D1400840003F2145
:1004C00089048A4209D3002A08DC1106090F04D0E6
:1004D000032149074018C00FC007F0BD01224100A9
:1004E000120689187F2252069142F6D20521490749
:1004F000C84201D59010F0BDFF20C005F0BD002F0F
:1005000000DA32461648AA4207D2AB4205D2190297
:10051000090E17D0F80FC007F0BDFF2563002D06A8
:10052000AB42F9D84900A942F6D8AB4201D1A94261
:10053000F2D0A94201D1002101E061004908D005B3
:100540000843F0BD1102090EFBD0FF200243D00585
:10055000F0BD0A460146104654E70000123800007C
:100560000000C07F0102C21504D00123DB0719433C
:10057000002A0ADB9E239A1A02D40846D04070470C
:10058000FF2241001206914201D900207047C01796
:10059000C04370471F22030C02D10F2200041CD05D
:1005A000030E01D10002083A030F01D10001121F0E
:1005B000830F01D18000921E002801DB4000521EF3
:1005C000D2055118021251181922904004D3491C27
:1005D000002801D14908490008467047C10FC907E2
:1005E00000D04042012292071143D3E7012189073D
:1005F000D0E7754600F024F8AE460500694653463C
:10060000C008C000854618B020B5FFF79FFD60BC4C
:1006100000274908B6460026C0C5C0C5C0C5C0C52C
:10062000C0C5C0C5C0C5C0C5403D49008D46704766
:1006300010B50446C046C0462046FFF776FD10BD03
:1006400000487047E403002001491820ABBEFEE7D4
:1006500026000200704770B58C180578401C6B07A7
:100660005B0F01D10378401C2A1106D10278401C8F
:1006700003E00678401C0E70491C5B1EF9D12B0765
:1006800005D40023521E0DD40B70491CFAE70378E1
:10069000401CCB1A921C03E01D780D70491C5B1C9A
:1006A000521EF9D5A142D8D3002070BD00B593B039
:1006B0003E4800F0AFF80121480201F015FC0C2182
:1006C00068460171022141710121817101A801F087
:1006D000BBF90121084601F0E7FB092168460171D9
:1006E000022141710121817101A801F0ADF9304869
:1006F00000F092F92D48403002902E4803900020DF
:10070000049006200590002006908020079040006D
:1007100008908000099020200A90032000030B908D
:1007200000200C9002A9224800F04CFA012202217C
:100730001F4800F03DFA01211D4800F05FF9022139
:100740001A4800F05FF80DA800F0C5F800200D90E1
:10075000002108A80176012080020F90002010904F
:10076000119012900DA9114800F09AF8012211047D
:100770000E4800F023F8012000F0B6F80B4800F016
:1007800059F80121094800F031F80121074800F02B
:1007900021F800BF0849054800F06AF80028F9D0A0
:1007A000024800F093F813B000BD0000002401409F
:1007B000080002402A0300200100000110B50B468A
:1007C0000021846A1C43846200BF0C461443214606
:1007D000416110BD002904D0826801231A43826060
:1007E00003E0826802231A4382607047002904D024
:1007F000C26801231A43C26003E0C2685208520073
:10080000C2607047C26802239A43C260C2680A434A
:10081000C260704710B504460548844207D10121E3
:10082000401501F071FB0021601501F06DFB10BD5A
:100830000024014030B501460020002200238C68CE
:100840000125ED072C438C6000BF8C68E30FDB07AC
:10085000521C0F242403A24201D0002BF5D18C6836
:10086000E40FE407002C01D1086C00E0002030BD4B
:1008700030B5024600200023012424060C40002C41
:1008800005D0946801252D06AC43234600E013688B
:100890001C460C40002C01D0012000E0002030BD9F
:1008A00010B50022C268084B1A400C7964030B682B
:1008B00023438C682343CC6823430C6923434C694E
:1008C00023431A43C26010BD03D2FFFF8168042294
:1008D0001143816070470021016001718160C16036
:1008E0000161416170470000002807D0074989680D
:1008F0000122D2051143054A916006E00349896847
:100900000122D2059143014A9160704700270140BE
:1009100070B502460B46FF25FF2408E01178521CF3
:1009200069400748405C604005460648445C1846FC
:100930005E1EF3B20028F1D12802204370BD0000F2
:10094000683A0008683B000870B502460B46FF2570
:10095000FF2408E01178521C69400748405C604061
:1009600005460648445C18465E1EF3B20028F1D1E5
:100970002802204370BD0000683A0008683B000868
:10098000F0B50246002000240025134614E01D782F
:100990005B1C00240EE006466E40F607F60F002EA4
:1009A00005D01826704040108026304300E04010EB
:1009B0006D10641C082CEEDB0E46491E002EE6D19D
:1009C000F0BD10B5022000F0D9F8002804D00220B4
:1009D00000F004F802F024F810BD0000012109071E
:1009E0000140002902D00349486001E00249486003
:1009F000704700000004024000000240002904D0BB
:100A0000026801231A43026003E00268014B1A40A6
:100A100002607047FEFF00000168554A1140016006
:100A20000021016041608160C1605249884208D163
:100A30005049083949680F2211434E4A083A51601B
:100A400094E04C491431884208D14A490839496830
:100A5000F0221143474A083A516087E0454928315E
:100A6000884209D14349083949680F2212021143CB
:100A7000404A083A516079E03E493C31884209D108
:100A80003C49083949680F2212031143394A083A90
:100A900051606BE037495031884209D135490839F6
:100AA00049680F2212041143324A083A51605DE04E
:100AB00030496431884209D12E49083949680F22EA
:100AC000120511432B4A083A51604FE02949783109
:100AD000884209D12749083949680F221206114373
:100AE000244A083A516041E02349884208D122490A
:100AF000083949680F2211431F4A083A516035E00E
:100B00001D491431884208D11B4908394968F0222F
:100B10001143194A083A516028E0174928318842A0
:100B200009D11549083949680F2212021143124AA6
:100B3000083A51601AE010493C31884209D10E4907
:100B4000083949680F22120311430B4A083A5160D1
:100B50000CE009495031884208D1074908394968F1
:100B60000F2212041143044A083A516070470000F2
:100B7000FEFF000008000240080402400146002079
:100B8000002201231B070B40002B02D0064B1A68E2
:100B900001E0064B1A6813460B40002B01D00120E0
:100BA00000E0002070470000000402400000024006
:100BB000002A03D003680B43036002E003688B4301
:100BC0000360704710B5002202680D4B1A400C6A92
:100BD0008B6823430C6923434C6923438C6923436B
:100BE000CC6923434C6A23438C6A23431A43026033
:100BF000CB6843600B6883604B68C36010BD000026
:100C00000F80FFFF09480A4948620A480068401CF3
:100C10000849086008460068042806D900200860D2
:100C200005480068401C044908607047B036000061
:100C30000044014024020020D00100201CB5012105
:100C4000480401F031F9202000900021684601712C
:100C50000121C17169460920C00600F061FE1CBD7A
:100C600010B526480068002804D0012812D00228B8
:100C70003BD11BE000F0A1F820210920C00600F0C4
:100C8000B9FE1F481F4948621C480068401C1B49A8
:100C9000086030E000F076F819484430194948629D
:100CA00016480068401C1549086024E00920C00669
:100CB000008A20210840012809D17D2040011149E6
:100CC000486200200D4908600F4908600CE00C489C
:100CD00019300C4948620020084908600A48006839
:100CE000401C0949086006E000BF00200649086072
:100CF0000249086000BF00BF10BD000020020020B4
:100D0000B5F9000000440140D001002010B516489C
:100D10000078040215480078044308211448FFF7BE
:100D20002FFE144908701248007A097888420DD1C4
:100D300011480088102108430F49088020B20A2179
:100D400048430003000C0D49888408E00A480088E5
:100D5000102188430849088000200849C8840020E1
:100D60000749086010BD0000BE010020BF0100203F
:100D700020030020D40100200E03002000000020EA
:100D8000D0010020012080020921C9060968420023
:100D9000821891430922D206116011460968116038
:100DA0001146C9684200821891430922D206D160D7
:100DB0001146C9680143D1607047012080020921B2
:100DC000C90689684200821891430922D2069160BF
:100DD000114689684200821811430922D2069160A7
:100DE00011468988202291430922D206918011461A
:100DF0008988202211430922D20691801146096870
:100E00004200821891430922D206116011460968F6
:100E1000014311607047000010B530480078C007EA
:100E2000C00F002845D1FFF7C8FF20210920C006C8
:100E300000F0E0FD20210920C00600F0DBFD2021AC
:100E40000920C00600F0D6FDFFF79CFF20210920F5
:100E5000C00600F0CFFD20210920C00600F0CAFD29
:100E600020210920C00600F0C5FD0920C006008A27
:100E70002021084000280AD0184800884108012095
:100E800088401749097808431549087009E0134854
:100E900000884108012088401149097881431048A1
:100EA00001701048104948620C480068801C0B49CA
:100EB00008600A48006810280BD100200749086024
:100EC000074800780949087009480068401C08492B
:100ED0000860034800780749087010BD40020020F0
:100EE00044020020ECF9000000440140BF01002052
:100EF000D00100202003002010B530480078C00742
:100F0000C00F002845D1FFF758FF20210920C00657
:100F100000F070FD20210920C00600F06BFD2021AB
:100F20000920C00600F066FDFFF72CFF20210920F4
:100F3000C00600F05FFD20210920C00600F05AFD28
:100F400020210920C00600F055FD0920C006008AB6
:100F50002021084000280AD01848008841080120B4
:100F600088401749097808431549087009E0134873
:100F700000884108012088401149097881431048C0
:100F800001701048104948620C480068801C0B49E9
:100F900008600A48006810280BD100200749086043
:100FA000074800780949087009480068401C08494A
:100FB0000860034800780749487010BD48020020C7
:100FC0004C020020ECF9000000440140BE0100206A
:100FD000D00100202003002010B530480078C00761
:100FE000C00F002845D1FFF7E8FE20210920C006E8
:100FF00000F000FD20210920C00600F0FBFC2021AC
:101000000920C00600F0F6FCFFF7BCFE20210920F5
:10101000C00600F0EFFC20210920C00600F0EAFC29
:1010200020210920C00600F0E5FC0920C006008A46
:101030002021084000280AD01848008841080120D3
:1010400088401749097808431549087009E0134892
:1010500000884108012088401149097881431048DF
:1010600001701048104948620C480068801C0B4908
:1010700008600A48006810280BD100200749086062
:10108000074800780949087009480068401C084969
:101090000860034800780749887010BD500200209E
:1010A00054020020ECF9000000440140C00100207F
:1010B000D00100202003002010B530480078C00780
:1010C000C00F002845D1FFF778FE20210920C00677
:1010D00000F090FC20210920C00600F08BFC2021AC
:1010E0000920C00600F086FCFFF74CFE20210920F5
:1010F000C00600F07FFC20210920C00600F07AFC29
:1011000020210920C00600F075FC0920C006008AD5
:101110002021084000280AD01848008841080120F2
:1011200088401749097808431549087009E01348B1
:1011300000884108012088401149097881431048FE
:1011400001701048104948620C480068801C0B4927
:1011500008600A48006810280BD100200749086081
:10116000074800780949087009480068401C084988
:101170000860034800780749C87010BD5802002075
:101180005C020020ECF9000000440140C101002095
:10119000D00100202003002010B530480078C0079F
:1011A000C00F002845D1FFF708FE20210920C00606
:1011B00000F020FC20210920C00600F01BFC2021AB
:1011C0000920C00600F016FCFFF7DCFD20210920F5
:1011D000C00600F00FFC20210920C00600F00AFC28
:1011E00020210920C00600F005FC0920C006008A65
:1011F0002021084000280AD0184800884108012012
:1012000088401749097808431549087009E01348D0
:10121000008841080120884011490978814310481D
:1012200001701048104948620C480068801C0B4946
:1012300008600A48006810280BD1002007490860A0
:10124000074800780949087009480068401C0849A7
:101250000860034800780749087110BD600200204B
:1012600064020020ECF9000000440140C2010020AB
:10127000D00100202003002010B530480078C007BE
:10128000C00F002845D1FFF798FD20210920C00696
:1012900000F0B0FB20210920C00600F0ABFB2021AC
:1012A0000920C00600F0A6FBFFF76CFD20210920F5
:1012B000C00600F09FFB20210920C00600F09AFB29
:1012C00020210920C00600F095FB0920C006008AF5
:1012D0002021084000280AD0184800884108012031
:1012E00088401749097808431549087009E01348F0
:1012F000008841080120884011490978814310483D
:1013000001701048104948620C480068801C0B4965
:1013100008600A48006810280BD1002007490860BF
:10132000074800780949087009480068401C0849C6
:101330000860034800780749487110BD6802002022
:101340006C020020ECF9000000440140C3010020C1
:10135000D00100202003002010B530480078C007DD
:10136000C00F002845D1FFF728FD20210920C00625
:1013700000F040FB20210920C00600F03BFB2021AB
:101380000920C00600F036FBFFF7FCFC20210920F5
:10139000C00600F02FFB20210920C00600F02AFB28
:1013A00020210920C00600F025FB0920C006008A84
:1013B0002021084000280AD0184800884108012050
:1013C00088401749097808431549087009E013480F
:1013D000008841080120884011490978814310485C
:1013E00001701048104948620C480068801C0B4985
:1013F00008600A48006810280BD1002007490860DF
:10140000074800780949087009480068401C0849E5
:101410000860034800780749887110BD70020020F9
:1014200074020020ECF9000000440140C4010020D7
:10143000D00100202003002010B530480078C007FC
:10144000C00F002845D1FFF7B8FC20210920C006B5
:1014500000F0D0FA20210920C00600F0CBFA2021AC
:101460000920C00600F0C6FAFFF78CFC20210920F5
:10147000C00600F0BFFA20210920C00600F0BAFA29
:1014800020210920C00600F0B5FA0920C006008A14
:101490002021084000280AD018480088410801206F
:1014A00088401749097808431549087009E013482E
:1014B000008841080120884011490978814310487B
:1014C00001701048104948620C480068801C0B49A4
:1014D00008600A48006810280BD1002007490860FE
:1014E000074800780949087009480068401C084905
:1014F0000860034800780749C87110BD78020020D1
:101500007C020020ECF9000000440140C5010020ED
:10151000D00100202003002010B530480078C0071B
:10152000C00F002845D1FFF748FC20210920C00644
:1015300000F060FA20210920C00600F05BFA2021AB
:101540000920C00600F056FAFFF71CFC20210920F4
:10155000C00600F04FFA20210920C00600F04AFA28
:1015600020210920C00600F045FA0920C006008AA3
:101570002021084000280AD018480088410801208E
:1015800088401749097808431549087009E013484D
:10159000008841080120884011490978814310489A
:1015A00001701048104948620C480068801C0B49C3
:1015B00008600A48006810280BD10020074908601D
:1015C000074800780949087009480068401C084924
:1015D0000860034800780749087210BD80020020A7
:1015E00084020020ECF9000000440140C601002004
:1015F000D00100202003002010B521480078C0074A
:10160000C00F00280AD01F481F494862FFF7BAFBE5
:101610001B480068401C1A49086024E0FFF7CDFB16
:1016200020210920C00600F0E5F91548008841088E
:101630000120884015490978084000280AD0104840
:101640000068801C0E4908600E480F494862FFF789
:1016500099FB08E00B48C01C0B4948620848006829
:10166000401C0749086006480068102807D1002080
:101670000349086006480068401C0549086010BD21
:1016800030020020F6F9000000440140340200203E
:10169000D001002010B521480078C007C00F0028F5
:1016A0000AD01F481F494862FFF76CFB1B480068BF
:1016B000401C1A49086024E0FFF77FFB2021092025
:1016C000C00600F097F915480088410801208840BD
:1016D00015490978084000280AD010480068801C85
:1016E0000E4908600E480F494862FFF74BFB08E0BF
:1016F0000B48C01C0B49486208480068401C074959
:10170000086006480068102807D1002003490860D7
:1017100006480068401C0549086010BD38020020DA
:10172000F6F90000004401403C020020D0010020F6
:1017300010B521480078C007C00F00280AD01F4804
:101740001F494862FFF71EFB1B480068401C1A49EE
:10175000086024E0FFF731FB20210920C00600F0DB
:1017600049F9154800884108012088401549097841
:10177000084000280AD010480068801C0E49086004
:101780000E480F494862FFF7FDFA08E00B48C01CFD
:101790000B49486208480068401C07490860064831
:1017A0000068102807D10020034908600648006837
:1017B000401C0549086010BD28020020F6F9000011
:1017C000004401402C020020D0010020704700009E
:1017D00001494861704700000004014010B504460B
:1017E00000F078F8204600F005F800F047F810BD4A
:1017F0007047000030B5044604250B20000400F0BB
:101800007BF80546042D17D10C48006902210843D6
:101810000A490861084644610069402108430749B4
:1018200008610B20000400F067F8054603480069D2
:101830000221884301490861284630BD002002404A
:1018400004200D49C968C907C90F002901D001202A
:1018500010E00949C96810221140002901D0022076
:1018600008E00549C96804221140002901D003207D
:1018700000E0042070470000002002400348006997
:1018800080210843014908617047000000200240A0
:1018900070B504460D4604260B20000400F02CF819
:1018A0000646042E11D10A4800690121084308495F
:1018B000086125800B20000400F01EF8064604484D
:1018C00000694008400002490861304670BD0000D0
:1018D000002002400548006980210840002804D00B
:1018E00003480249486003484860704700200240AE
:1018F00023016745AB89EFCD10B503460424FFF7FC
:101900009FFF044603E0FFF79BFF04465B1E012C8C
:1019100001D1002BF7D1002B00D10524204610BDAA
:10192000F0B50A4600210023002400BF3DE0012558
:101930008D402B4615681D402C469C4234D11579AC
:10194000012D02D01579022D16D185684F0003268E
:10195000BE40B543856055794E00B5408668354335
:101960008560858801268E40B54385808588967977
:101970008E40B6B23543858005684F000326BE40D1
:10198000B543056015794E00B540066835430560DE
:10199000C5684F000326BE40B543C560D5794E00EB
:1019A000B540C6683543C560491C1029BFD3F0BD9A
:1019B000F0B5002300244D07EE0E1546B5402B462A
:1019C000CD10AE0005462035AD594E07F70E0F2657
:1019D000BE40B543CE10B60007462037BD51CD10EE
:1019E000AE003D46AD591D432C46CD10AD003E46E0
:1019F0007451F0BD018570478161704700BFFEE7FB
:101A00000148024908607047CCCC0000003000401B
:101A10000148024908607047AAAA0000003000404F
:101A2000014948607047000000300040014988606B
:101A30007047000000300040014908607047000016
:101A4000003000407047000000218278002A27D033
:101A5000184A03231B02D21803789B109B00D1580D
:101A600002789207D30EFF229A400B469343194601
:101A700042789207120E03789B07DB0E9A401143BF
:101A80000C4A03231B02D21803789B109B00D150F1
:101A90000278D306DB0E01229A40064B1A6007E05B
:101AA0000278D306DB0E01229A40024B80331A6083
:101AB0007047000000E100E0012001490870704714
:101AC00068000020F8B57948807800027749C97825
:101AD000401880B200907548007900027349497936
:101AE000401887B27248C078724908700320487065
:101AF0007806000E8870CD1C0026B4E0009880198E
:101B00006D494018030000F041FF26141B222930C4
:101B1000A434373E4144474E5155595D61656C7060
:101B2000A474777A7D808386898C8F9295989B9E0A
:101B3000A1A4624908686421FEF7BDFB84B28AE073
:101B40005E4948686421FEF7B6FB84B283E05B49D6
:101B500088686421FEF7AFFB84B27CE05749C8680F
:101B60006421FEF7A8FB84B275E05448008D84B26E
:101B700071E0534804886EE0504908696421FEF71B
:101B800090FB84B267E04D48848C64E04B48C48C81
:101B900061E04A48848E5EE04849C88F6421FEF7C0
:101BA0008AFB84B257E04548848F54E04348403074
:101BB000048850E04148806C84B24CE03F48406C5F
:101BC00084B248E03D48006D84B244E03B48C06CBC
:101BD00084B240E03949488C6421FEF76CFB84B242
:101BE00039E03648C06D84B235E03448C08E84B2E6
:101BF00031E02F48C4782EE02D4844892BE02C4852
:101C0000848928E02A48C48825E02948048922E0FC
:101C10002748C4891FE02648048A1CE02448448AD7
:101C200019E02348848A16E02148C48A13E020483A
:101C3000048B10E01E48448B0DE01D48848B0AE0A5
:101C40001B48C48B07E01A48048C04E01848448CF5
:101C500001E0002400BF00BF201228706D1C2C7012
:101C60006D1C701CC6B2BE4200DA47E7114880788E
:101C7000C01CC1B20F48FEF767FE04462046E117BC
:101C8000090E09180904090E2970E117090E09182F
:101C900009120902611A697000200A490870780067
:101CA000401D0949087001F01BFCF8BDB20300207B
:101CB000EA0200204203002006FAFFFF0000002095
:101CC0000E030020E4020020E602002070B500258B
:101CD00005E05E48405D5E494855681CC5B2082D68
:101CE000F7DB08205B49087000205B490870584802
:101CF0000078002801D001F0F3FB54480479200259
:101D000004B252484079001904B25048807806283D
:101D100075D14E48C078102808D1012C00DA012472
:101D2000F72C00DDF7244D49CC708BE04748C07894
:101D300011280FD17D200001844200DA0446484872
:101D4000844200DD044645494C814649CC8401F07B
:101D5000F3FD77E03D48C078122808D11E2C00DA48
:101D60001E24962C00DD96243C498C816AE037487D
:101D7000C07813280AD1002C01DA002403E03A4885
:101D8000844200DD04463549CC805BE02F48C078B2
:101D900014280AD1002C01DA002403E032488442DE
:101DA00000DD04462D490C814CE02848C0781528F8
:101DB00002D12A49CC8145E02448C078162802D1B6
:101DC00026490C823EE02148C078172802D12349D9
:101DD0004C8237E01D48C078182802D11F498C82F8
:101DE00030E01A48C078192802D11C49CC8229E079
:101DF0001648C0781A2803D118490C8322E023E042
:101E00001248C0781B2802D114494C831AE00F48AD
:101E1000C0781C2802D111498C8313E00B48C0788C
:101E20001D2802D10D49CC830CE00848C0781E283B
:101E300002D10A490C8405E00448C0781F2801D16A
:101E400006494C8401F0DAFA70BD0000B2030020AC
:101E500042030020E6020020E4020020EA02002003
:101E6000983A000000000020DC05000010B503498E
:101E700009688900024A5058804710BDD0010020EF
:101E8000D801002010210648FFF7B4FD4020FFF7DD
:101E90009FFC10210248FFF7AFFD00BFFEE70000E6
:101EA0000008004870470000002905D0054A526923
:101EB0000243044B5A6104E0024A52698243014BD7
:101EC0005A61704700100240002905D0054AD269C6
:101ED0000243044BDA6104E0024AD2698243014BB7
:101EE000DA61704700100240002905D0054A926966
:101EF0000243044B9A6104E0024A92698243014B17
:101F00009A61704700100240002905D0054AD26846
:101F10000243044BDA6004E0024AD2688243014B78
:101F2000DA60704700100240FEB504460025002626
:101F300000200290019000900027864840680C2104
:101F400008400546002D06D0042D07D0082D08D0E6
:101F50000C2D2CD128E0804820602BE07F482060A9
:101F600028E07C4840680F218904084006467948EB
:101F700040680321C90308400290B00C861C0298F7
:101F8000002803D17648374647430BE07148C06AC2
:101F90000007000F401C019070480199FEF781F97D
:101FA00070430746276005E06E48206002E06A48FB
:101FB000206000BF00BF67484068F0210840054628
:101FC0002D096948405D009020680099C840606014
:101FD0006048406807210902084005462D0A62480A
:101FE000405D009061680098C140A1605948006B55
:101FF000FF2101310840884202D05C48E0600DE0DA
:1020000054484068012189030840884203D0A068F1
:102010004008E06002E0A0688008E0604D48006B86
:1020200040210840402802D05148206102E00120B0
:10203000C00320614748006B10210840102802D0DF
:102040004548606101E0206860614248006B80079C
:10205000800F002802D1A068A06119E03D48006B04
:102060008007800F012802D12068A06110E0394864
:10207000006B8007800F022802D18003A06107E077
:102080003448006B8007800F032801D13248A061DB
:102090003048006B032109040840002802D1A068E1
:1020A000E06120E02B48006B032109040840012176
:1020B0000904884202D12068E06114E02548006BE1
:1020C00003210904084001214904884202D18010FB
:1020D000E06108E01F48006B0321090408408842C2
:1020E00001D11D48E0611B48006B032189040840B1
:1020F000002802D1A068206220E01648006B03216E
:102100008904084001218904884202D120682062A4
:1021100014E01048006B0321890408400121C90420
:10212000884202D10011206208E00A48006B0321B6
:1021300089040840884201D1074820620548006BA5
:1021400080210840802802D00648606200E0676273
:10215000FEBD00000010024000127A000024F400CE
:1021600000093D00006CDC0210030020809FD500B8
:102170001280000030B50346002005E044001C5BDF
:1021800045005453441CE0B2CD0F6D186D108542CC
:10219000F4DC30BD30B50546284829490978455456
:1021A00027480078401C264908700846007803003C
:1021B00000F0ECFB080506071314151617183AE093
:1021C00000BF04E000F0FCFD002800D103E000F0B7
:1021D000CDFD0028F6D000BF2DE000BF00BF00BF3E
:1021E00000BF28E000F096FD0446022C12D1002426
:1021F00005E01248005D13490855601CC4B2104840
:1022000000788442F5DB01200F49087000200C495A
:1022100008700FE0012C0CD100F0D2FD04E000F0BA
:10222000CFFD002800D103E000F0A0FD0028F6D08B
:1022300000E000BF00BF00BF30BD000082030020EF
:10224000E5020020B2030020E702002070470000F2
:102250000CB500200190009011201D4908601D4818
:1022600040681C4948600846406848600846406825
:102270007F21C90388431749486008464068052103
:10228000C90408431349486008460068012109064B
:1022900008431049086000BF0E4800680121490644
:1022A00008400028F8D00B484068800880000949A1
:1022B000486008464068022108430649486000BF5C
:1022C000044840680C2108400828F9D10CBD0000E2
:1022D000002002400010024010B5FFF7EDFB10BDDA
:1022E00010B51B48006801210843194908600846D9
:1022F0004068184908401649486008460068164971
:102300000840134908600846006801218904884391
:102310000F490860084640683F21090488430C497A
:1023200048600846C06A00090001C8620846006BA0
:10233000FF2154318843064908630846406B400832
:102340004000486300208860FFF782FF10BD000056
:10235000001002400CB8FFF8FFFFF6FE10B5012197
:10236000054800F0A0F8002805D00121024800F03F
:1023700077F8FFF77BFD10BD0044014010B5012147
:10238000064800F090F8002806D00121034800F02C
:1023900067F8002000F0E0FD10BD0000002C0140B7
:1023A00010B50121880700F07EF80121880700F0B0
:1023B00057F81248008808210840002805D0C806B0
:1023C000C06A401CC906C86210BD0C4800881021B4
:1023D0000840002805D18806C06A401C8906886329
:1023E000F2E707480068401E01218907C8620448D7
:1023F00000684008886300BFE6E700000E03002085
:102400007400002010B50121124800F04CF80121A1
:10241000104800F025F810480088082108400028DE
:1024200003D000200B49C86210BD0B480088102162
:102430000840002802D10749C862F5E7074800684C
:10244000401E0449C862054800684008486300BF50
:10245000EAE70000000400400E03002074000020A2
:10246000CA43028270470000002904D00288012379
:102470001A43028003E00288014B1A400280704731
:10248000FEFF0000002907D04422125A0123DB037B
:102490001A4344231A5205E04422125A53045B0C97
:1024A00044221352704730B5024600200023002416
:1024B000158A0D402B4695890D402C46002B03D0E4
:1024C000002C01D0012000E0002030BD002A03D004
:1024D00083890B43838102E083898B438381704727
:1024E00070B5002400220023058C1C4E3540058465
:1024F000028C8388048B194D6F3D2C40B51E2C40F7
:102500000D882C43751E2A408D892A434D882A4305
:10251000134DA84208D0134DA84205D0124DA84231
:1025200002D0124DA84212D10C4DED1F2A40CD8988
:102530002A430A4DED1E2A408D882A43074DFF3D50
:102540002B400B4D2B400D8A2B434D8A2B43838010
:1025500004838D684563028470BD0000FEFF0000A7
:10256000002C01400040014000440140004801406F
:10257000FFFD00000A460021018B034B19400B466A
:102580001343194601837047F7FF000070B500241C
:1025900000220023058C214E35400584028C83885F
:1025A000048B1F4D2C401F4D2C400D782D062D0CFB
:1025B0002C431A4D103D2A408D892D052D0C2A43A0
:1025C0004D882D052D0C2A43174DA84202D0174DDA
:1025D000A8421CD1164D2B400D8AAD042D0C2B4367
:1025E000114DA84213D10D4D703D2A40CD892D05C6
:1025F0002D0C2A43094D303D2A408D882D052D0C88
:102600002A430C4D2B404D8AAD042D0C2B43838067
:1026100004838D688563028470BD0000EFFF0000B5
:10262000FF8F0000FFFC0000002C01400040014033
:10263000FFFB0000FFF700000A460021018B034B5F
:10264000194013061B0C194301837047FFF7000064
:10265000002101804180818081608181C18101826E
:10266000418270478288034B1A40828082880A43E5
:10267000828070478FFF000000220288154B98422D
:1026800006D001239B07984202D0134B984203D1F6
:10269000124B1A404B881A43114B984203D0114BEE
:1026A0001A400B891A4302804B68C3620B8803856A
:1026B000084B984208D00C4B984205D00B4B9842DF
:1026C00002D00B4B984201D18B7A0386012383827F
:1026D00070470000002C0140000400408FFF000004
:1026E00000100040FFFC0000004001400044014099
:1026F0000048014070B51749174800F048F8002815
:1027000007D0154800F008F9C4B22046FFF742FD93
:102710001EE01249104800F03AF8002814D00F4982
:102720000D4800F01FF800F023FA002809D0FFF749
:102730005FF800F0FFF905462946074800F0F1F878
:1027400006E0FFF743F803E00020C04302490862B7
:1027500070BD0000050105000038014006010600BB
:102760000162704710B5002300220B0C01249C402D
:102770002246026210BD002904D0026801231A43D8
:10278000026003E00268520852000260704770B5B0
:1027900002460B4600240021002500201E04350EB1
:1027A000D9B201268E403146012D02D11668314042
:1027B00006E0022D02D15668314001E096683140B2
:1027C0001C0C0126A6403446D6693440002903D0AB
:1027D000002C01D0012000E0002070BDF8B50346B8
:1027E0000024002600960025002018460E04340E12
:1027F000CEB200960127009EB7403D46022C01D183
:10280000001D02E0032C00D10830002A03D0066826
:102810002E43066002E00668AE430660F8BD000085
:10282000F0B58BB004460D46002700200A90002624
:102830002068400840002060666803210903304694
:1028400088430646A8680643666026682D48064009
:10285000E968686808432969084306432660A66852
:102860000321090230468843064668690643A6608C
:102870006846FFF759FB2448844202D106980A9023
:102880000DE02248844202D107980A9007E02048D0
:10289000844202D108980A9001E002980A902068C8
:1028A0000121C903084000280CD029680A9A500069
:1028B000FDF7F7FC074629680A9A5000FDF7F1FC7E
:1028C0000E4609E029680A98FDF7EBFC07462968DF
:1028D0000A98FDF7E6FC0E4628684008B04200D88A
:1028E0007F1C20680121C9030840002806D0380752
:1028F000460F38460749084030430746A7810BB0CA
:10290000F0BD0000F3E9FFFF003801400044004043
:1029100000480040F0FF00000146888CC005C00D53
:102920007047CA05D20D02857047F8B506460C46B9
:102930001746FEF7CFFF002507E06A00B95A6A0084
:102940009019FEF7A5FF681CC5B2E10F09194910DF
:10295000491CA942F1DCFEF791FFF8BDF8B582B23F
:102960008BB2040C0D0C10465843002126465E43E2
:10297000370C36048019794116466E43370C3604FD
:102980008019794126466E438919F8BD30B47446E2
:10299000641E2578641CAB4204D3635D5B00E318BE
:1029A00030BC18471D46F8E710B5002819DB1A4A55
:1029B00003231B02D21883089B00D2588307DC0E26
:1029C000FF23A3409A438B071B0E8407E40EA3400A
:1029D0001A43114B032424021B198408A4001A5122
:1029E00018E00E4A03071B0F083B9B089B00D258B8
:1029F0008307DC0EFF23A3409A438B071B0E84073B
:102A0000E40EA3401A43054B0407240F083CA40816
:102A1000A4001A5110BD000000E100E01CED00E030
:102A200010B50F480068042805D20D480068401C06
:102A30000B49086013E000200949086009484489EF
:102A4000094800680949FFF789FF0905000B084399
:102A500020180549086008460068000B086010BD92
:102A6000CC0200202A030020B8020020FF0F000043
:102A70001FB50121C802FFF737FA0D216846017022
:102A80000221417001218170FEF7DEFF0122114613
:102A90000C48FFF71BFD0021684681818180F920E9
:102AA00002906846C1800721817301A90548FFF79C
:102AB000E3FD20210348FFF7D5FD01210148FFF781
:102AC000D3FC1FBD002C01400B484078032806D0E2
:102AD000052806D0062806D010280BD105E00620D0
:102AE00070470620FCE70620FAE703488079C01DFE
:102AF000C0B2F5E70020F3E78203002010B50B48D1
:102B0000008B0B4909680C1A1920400144430748FF
:102B100020304088054A128B811A2046FDF7CBFBF6
:102B20000446FF342D34204610BD0000A0F7FF1FDF
:102B3000B80200200B4800780B4A127890420ADA5B
:102B40000A48084A1278815C06480078401C054A09
:102B50001070084670470020034A1070014A107038
:102B600000BFF7E7E4020020E60200204203002055
:102B70000748007807490978884201DA0120704740
:102B80000020044908700249087000BFF7E7000000
:102B9000E4020020E60200200EB501214804FFF700
:102BA00083F901218803FFF79FF9FEF70FFE032049
:102BB00040020190022168460172002181720121C8
:102BC000C17201A90920C006FEF7AAFE012209214F
:102BD000C806FEF7EDFE01220A210920C006FEF715
:102BE000E7FE1B21684601700221417001218170BE
:102BF000FEF72AFF024A1179907800F00DFC0EBD15
:102C0000EA0200201FB5FEF719F801214804FFF77A
:102C10006BF9152168460170012141708170FEF742
:102C200013FF012211460C48FFF750FC00216846B3
:102C30008181FF21E03181800848029000216846AF
:102C4000C180817301A90448FFF716FD01210248E4
:102C5000FFF70AFC1FBD000000440140FFF900001F
:102C600010B5FFF705FF00F037FC10BD10B500F000
:102C7000C5F810BD38B515216846017002214170B4
:102C800001218170FEF7E0FE012211461048FFF796
:102C90001DFC7D21C9000F480068FDF702FB0446BA
:102CA000601E0D49884201D901200CE0601E0B49CD
:102CB00048610321081FFFF777FE0020074988615C
:102CC000072008610020002801D000BFFEE738BDC2
:102CD00000440140D0020020FFFFFF0000E000E0C0
:102CE00010B50748FEF7A8FE0648FEF79FFE032032
:102CF000FEF796FEFEF78CFEFEF782FE10BD00008A
:102D000055550000FF0F000010B500F0A1FA00F0CB
:102D1000C1FA10BDF0B513480078082801DA002088
:102D2000F0BDFFF7D1FE0446002C00D1F8E70D48B6
:102D30000178A01C814201DA0020F1E721460A480F
:102D4000FDF7E6FD05462E12EFB20748005DB042E2
:102D500006D10549601C085CB84201D10220DFE7BA
:102D60000120DDE7E5020020820300201148007801
:102D7000012807DB104800781049C978884201D043
:102D8000002070470B480078022811DB0A48407881
:102D900003280DD008484078052809D00648407817
:102DA000062805D004484078102801D00020E8E724
:102DB0000120E6E7E502002082030020EA0200206D
:102DC0000C480078012801DA00207047012106E054
:102DD0000948425C481E084B1A54481CC1B20548B9
:102DE00000788142F4DB03480078401E014A1070ED
:102DF0000120EAE7E50200208203002010B50B4A1B
:102E000002210B48FFF7B6F90848008809498842B3
:102E100005D008460549088000F0F0FA10BD034AC5
:102E200024210348FFF7A6F900BFF7E7EA020020D4
:102E3000007F0008AA5400000024FFF751FF012082
:102E400080F3108800BF2348008808218843214967
:102E50000880FFF70BFF204840892049C8840021E3
:102E60001E4820300170FFF74FFFFFF795FEFFF778
:102E7000F7FEFFF7FFFEFFF7C5FE002080F3108886
:102E800000BF26E0FEF7C4FD00F02EF814480078DD
:102E9000002800D11DE0002011490870641CFF21AA
:102EA000F5312046FDF7FDF9002901D100F072FB54
:102EB0007D2109012046FDF7F4F9002904D1FFF72F
:102EC0001DFE00B20549C8860648844200D9002488
:102ED00000BFD7E70E030020EA0200200000002018
:102EE000680000208813000010B5184800780028FA
:102EF00005DD16480078401E1449087000BF012007
:102F000080F3108800BF12480078002817D00020F6
:102F10000F49087000BF80F3108800BF0D4840784B
:102F2000032804D0052805D0062807D103E0FEF7C2
:102F3000C9FD03E000BFFEF7C9FE00BF04E00020AA
:102F400080F3108800BF00BF10BD0000E802002021
:102F5000E7020020B2030020F0B589B0A94800685C
:102F6000002808D1A84948638863C863A64940314E
:102F7000086009B0F0BDA548418CA548FDF79BF954
:102F8000A4490860084600687D214901884202D9A9
:102F90000846A04908609D4A518C126E7D235A4311
:102FA0001046FDF77EF99C4908609848806A9B4965
:102FB00008609B489B499C4A0092019102909B4962
:102FC0009B4B9C4A08689C4900F098FA9A48006814
:102FD000002844DD96480468E01790490D680021F8
:102FE0000791089020462A46079B0899FDF7C0F8EC
:102FF000894A166800220492059106903246049B85
:10300000FDF7B6F88D4A978B00220192029103904A
:103010003A46019BFDF7ACF884480164006C834993
:1030200008640846006C7B490968884203D97948DE
:1030300000687E490864754800688149884203DD5C
:1030400000207149C86306E07848006CC5214843F8
:10305000000B6D49C86300206B49486339E076482E
:103060000068002831DA73480468E7176B48056880
:1030700000200890204639462A46089BFDF778F83C
:10308000624A966D00220592069107903246059B92
:10309000FDF76EF80903000D0843001C63494864FE
:1030A0000846406C5B490968884203D95948006862
:1030B0005E49486400205449C8635C48406CC5219F
:1030C0004843000B5049486303E000204E494863E1
:1030D000C86355480068002844DD51480468E0177B
:1030E0004E490D6800210791089020462A46079B0B
:1030F0000899FDF73DF8484A1668002204920591A8
:1031000006903246049BFDF733F84C4AD78B0022D9
:103110000192029103903A46019BFDF729F8081CA1
:10312000484908640846006C3A490968884203D94E
:103130003848006843490864344840684049884238
:1031400004DD002030494031086007E03D48006C54
:10315000C5214843000B2C494031086000202A4912
:1031600088633CE030480068002832DA2D48046863
:10317000E0172A4900270D68089020462A463B465A
:103180000899FCF7F5FF214A966D002205920691F9
:1031900007903246059BFCF7EBFF0903000D08433F
:1031A000001C284948640846406C1A49096888424E
:1031B00003D9184800682349486400201249403167
:1031C00008602048406CC5214843000B0E498863C5
:1031D00005E000200C49403108600B498863134822
:1031E00000681949096840181049086008460068D5
:1031F0001649884204DB0D480068401A0B490860F4
:1032000000BFB6E690010020002C01400000002025
:1032100040A5AE02800100208C0100209401002016
:10322000D4000020D0000020CC000020E8000020C6
:10323000C8000020C4000020C0000020EA020020D6
:103240008884020030010020D80000207F4806005A
:103250001CB501214804FEF727FE42200090022100
:103260006846017101214171002181710121C17103
:1032700069460920C006FEF753FB022201210920FE
:10328000C006FEF795FB012206210920C006FEF7C5
:103290008FFB1CBDF0B58DB05449C88CFDF7A6F965
:1032A000074639465248FDF7ADF80646514900F049
:1032B00075FB0546FDF756F9044601210220FEF78D
:1032C00003FE01210846FEF7FFFD002168468183C9
:1032D000FF21E0318182601E069000216846C18294
:1032E000817705A94448FFF7C7F908A8FFF7B0F9A7
:1032F0006021684601840121418400218184818507
:10330000C18560080A9008A93B48FFF7E9F8082141
:103310003948FFF72FF9002168468181FF21E0310C
:103320008180601E029000216846C180817301A9DE
:1033300001208007FFF7A0F908A8FFF789F96021AD
:103340006846018401214184002181840221818514
:103350000821C18560080A9008A901208007FFF7AD
:1033600015F90821C806FFF767F901212248FFF780
:1033700077F8012211462048FFF7A8F801211E48DE
:10338000FFF772F81021684601740221417401218F
:10339000817404A8FEF758FB01218807FFF760F845
:1033A000012211469007FFF791F801218807FFF7E6
:1033B0005BF80F2168460174022141740121817478
:1033C00004A8FEF741FB01210B48FFF75BF8012140
:1033D0008807FFF757F801210748FFF745F8012153
:1033E0008807FFF741F80DB0F0BD00000000002095
:1033F0000050C3470000C8420004004010B5044814
:10340000FEF7ECF9034A24210148FFF78EFA10BDBC
:10341000007F0008EA02002070B586B004460E4620
:1034200000222A492A48FFF7D9F9002229492848C9
:10343000FFF7D4F900212648FFF79DF9002C02D1AF
:103440004B25ED0012E0012C02D14B252D010DE0A2
:10345000022C02D14B256D0108E0032C02D14B2533
:10346000AD0103E0042C01D14B25ED0100950020B6
:103470000290002E01D101900390012E04D130035F
:103480000190032040020390022E03D1F00201902C
:1034900080100390002005900C20049069460C4891
:1034A000FFF7BEF940210A48FFF75AF901220949FE
:1034B0000748FFF793F9012204490548FFF78EF901
:1034C00001210348FFF757F906B070BD050105005B
:1034D000003801400601060010B5FDF7E7F810BD01
:1034E00010B5FEF785F9FFF725FB04462146024893
:1034F000FFF717FA10BD000000380140FFB581B09A
:1035000005460E46174668001B49FCF7D4FE0446E4
:1035100001E0FF340134002CFBDBFF20013084424A
:1035200006DD2046E117090E091809120902641A7E
:10353000A0001249085840003060A0001049085807
:1035400040003860A0000F4908584100049801600D
:10355000A0000D49085841000A980160A0000B49DD
:10356000085841000B980160A00009490858410023
:103570000C98016005B0F0BD910C0000643A0008A1
:10358000583A0008503A0008603A0008543A0008D7
:103590004C3A000870B5E148808CE14909898842BD
:1035A00009DBE048008808210843DE490880002044
:1035B000DA49C88470BDD948808C002809DCD94814
:1035C000008808210843D74908800020D349C884CF
:1035D0008FE1D248808C002801DD012000E000202E
:1035E000CE49898CFF222D32914201DC012100E07D
:1035F0000021084000280AD0CA48008808218843D2
:10360000C8490880C6484089C449C88471E1C34894
:10361000808CFF212D31884201DD012000E0002057
:10362000BE49898CFF225F32914201DC012100E01A
:103630000021084000280AD0BA48008808218843A1
:10364000B8490880B6484089B449C88451E1B348B4
:10365000808CFF215F31884201DD012000E00020E5
:10366000AE49898CFF229132914201DC012100E0B8
:103670000021084000280BD0AA4800880821884370
:10368000A8490880A64840891E38A449C88430E16A
:10369000A248808CFF219131884201DD012000E0A9
:1036A00000209E49898CFF22C332914201DC012116
:1036B00000E00021084000280BD09A48008808212B
:1036C0008843984908809648408932389349C8848D
:1036D0000FE19248808CFF21C331884201DD012037
:1036E00000E000208D49898CFF22F532914201DCF7
:1036F000012100E00021084000280BD08948008803
:10370000082188438749088085484089643883496F
:10371000C884EEE08148808CFF21F531884201DDCC
:10372000012000E000207D49898C7F4A914201DC24
:10373000012100E00021084000280BD079480088D2
:103740000821884377490880754840898C38734937
:10375000C884CEE07148808C7349884201DD012025
:1037600000E000206D49898C4B22D200914201DC9F
:10377000012100E00021084000280BD069480088A2
:10378000082188436749088065484089A038634913
:10379000C884AEE06148808C4B21C900884201DDBD
:1037A000012000E000205D49898C5F4A643291422B
:1037B00001DC012100E00021084000280BD059481D
:1037C0000088082188435749088055484089AA380D
:1037D0005249C8848DE05148808C534964318842F5
:1037E00001DD012000E000204C49898CAF229200CD
:1037F000914201DC012100E00021084000280BD0AB
:103800004848008808218843464908804448408940
:10381000B4384249C8846CE04048808CAF218900AC
:10382000884201DD012000E000203C49898C3E4AAD
:10383000C832914201DC012100E00021084000284B
:103840000BD038480088082188433649088034481E
:103850004089C8383149C8844BE03048808C3249AF
:10386000C831884201DD012000E000202B49898C0D
:1038700019225201914201DC012100E0002108409F
:1038800000280BD027480088082188432549088054
:1038900023484089D2382149C8842AE01F48808CB7
:1038A00019214901884201DD012000E000201B4967
:1038B000898C7D22D200914201DC012100E00021AF
:1038C000084000280BD01748008808218843154974
:1038D000088013484089F0381049C88409E011482D
:1038E0000088082188430F4908800D4840890B490A
:1038F000C8840A49C88CFCF779FE064631460B4855
:10390000FCF780FD05460A4900F048F80446FCF73C
:1039100029FE0849086000BF4CE6000000000020B6
:10392000EA0200200E030020260200000050C347D8
:103930000000C8427400002070B51348008A0421BA
:103940000840002805D11048008A082108400028B6
:103950000CD00E480E49C98CFFF700F804460D4AFA
:103960000023FCF71DFC0C4908600BE007480649E2
:103970004989FEF7F3FF0446064A0023FCF710FCD2
:103980000549086070BD0000EA0200207F4806007B
:1039900000000020009F2400D800002070B54200E5
:1039A00064414B005C41120E39D01B0E38D0FF2A07
:1039B0003CD0FF2B3AD040024902400A490A060097
:1039C00045184E43000A090AD2184843ED017F3AD0
:1039D0000104731A4019190C4318990F04D00121DE
:1039E0005B0849075B1A521CD80904D3401CF50335
:1039F00001D19D0607D0FF2A08D2D50506D0E407DD
:103A00002043401970BD0125A843F4E7002A01DCDA
:103A1000E00770BD2402FF202043C00570BD1B0ECF
:103A2000FF2A03D0FF2B01D0E00770BDFF26450021
:103A30003606B54206D84D00B54203D8D218FF2A43
:103A400000D0E7E7004870BD0000C07F746E010041
:103A5000AF680000846501008465010021660000F4
:103A60003D00FEFFC329000000C1814001C080412C
:103A700001C0804100C1814001C0804100C181403E
:103A800000C1814001C0804101C0804100C181402E
:103A900000C1814001C0804100C1814001C080411E
:103AA00001C0804100C1814001C0804100C181400E
:103AB00000C1814001C0804100C1814001C08041FE
:103AC00001C0804100C1814000C1814001C08041EE
:103AD00001C0804100C1814001C0804100C18140DE
:103AE00000C1814001C0804101C0804100C18140CE
:103AF00000C1814001C0804100C1814001C08041BE
:103B000001C0804100C1814000C1814001C08041AD
:103B100001C0804100C1814001C0804100C181409D
:103B200000C1814001C0804100C1814001C080418D
:103B300001C0804100C1814001C0804100C181407D
:103B400000C1814001C0804101C0804100C181406D
:103B500000C1814001C0804100C1814001C080415D
:103B600001C0804100C1814000C0C101C30302C245
:103B7000C60607C705C5C404CC0C0DCD0FCFCE0EAD
:103B80000ACACB0BC90908C8D81819D91BDBDA1A1D
:103B90001EDEDF1FDD1D1CDC14D4D515D71716D68D
:103BA000D21213D311D1D010F03031F133F3F232FD
:103BB00036F6F737F53534F43CFCFD3DFF3F3EFE6D
:103BC000FA3A3BFB39F9F83828E8E929EB2B2AEADD
:103BD000EE2E2FEF2DEDEC2CE42425E527E7E6264D
:103BE00022E2E323E12120E0A06061A163A3A262BD
:103BF00066A6A767A56564A46CACAD6DAF6F6EAE2D
:103C0000AA6A6BAB69A9A86878B8B979BB7B7ABA9C
:103C1000BE7E7FBF7DBDBC7CB47475B577B7B6760C
:103C200072B2B373B17170B050909151935352927C
:103C300096565797559594549C5C5D9D5F9F9E5EEC
:103C40005A9A9B5B99595898884849894B8B8A4A5C
:103C50004E8E8F4F8D4D4C8C4484854587474686CC
:103C60008242438341818040818283848586878824
:103C7000898B8C8D8E8F919293959697999A9C9D16
:103C80009FA0A2A3A5A7A8AAACAEB0B2B3B5B7B97E
:103C9000BCBEC0C2C5C7C9CCCED1D4D7D9DCDFE247
:103CA000E6E9ECF0F3F7FAFEC83C0008000000205B
:103CB0002003000056060008943D00082003002061
:103CC00028070000F4000008012012C803487017FC
:103CD000F2060A2D0108515A7D04012BE3B004239A
:103CE00030750342E803093A48720A031E68102639
:103CF000282D9ADD021E3B283B2BBC08134F281BA6
:103D0000491B7302204C13610C140831171408F975
:103D1000151B08050C69101395161C08190E1819A7
:103D20000413D90F1408B910140899111408791242
:103D3000140859131C083914201934130D0D0210DE
:103D40000872CC7244024EBE59701A65E7B123E086
:103D50002E23A00F93401F2A802233C05D3BD6063E
:103D600036A9AA7B6CDC406009010203040607083F
:103D7000092555AA04011008C2012C01D417781492
:103D8000D007061228151D011D0179028BB80B38CA
:043D9000693C00008A
:04000005080000B13E
:00000001FF
